:020000040800F2
:10000000480D0020C5000008091C00083F15000825
:1000100000000000000000000000000000000000E0
:10002000000000000000000000000000531C000859
:100030000000000000000000511C00086D1C0008BA
:10004000D700000800000000D7000008D700000813
:10005000D7000008D7000008D7000008D700000824
:1000600000000000B9020008D7000008D70000080F
:1000700065010008D7000008D70000080000000054
:10008000D70000080000000000000000D7000008B2
:1000900000000000D7000008D7000008D7000008C3
:1000A00000000000D7000008000000000521000843
:1000B0000348854600F044F800480047F92400084A
:1000C000480D00200448804704480047FEE7FEE74B
:1000D000FEE7FEE7FEE7FEE7291D0008B100000885
:1000E00030B50B46014600202022012409E00D46D0
:1000F000D5409D4205D31D469540491B2546954058
:1001000040191546521E002DF1DC30BDD2B201E07F
:100110000270401C491EFBD270470022F6E710B562
:1001200013460A4604461946FFF7F0FF204610BD65
:10013000421C0178401C0029FBD1801A7047000046
:10014000064C0125064E05E0E36807CC2B430C3C2A
:1001500098471034B442F7D3FFF7AEFF7C2800086D
:100160009C28000810B5024800F086F910BD000078
:10017000C000002010B50146406A426C50231A426C
:100180000AD1416C01225202114341640168CA68DC
:100190001205920F05D020E0C06B026B0846904715
:1001A00010BD026A002A18D10A68120715D58A689C
:1001B00053070122002B09DB4B680C24A3434B603F
:1001C000416C130299431143416406E0416C2023C2
:1001D00019434164816C1143816400F03DF910BD05
:1001E00010B5406A416C402211434164816C042285
:1001F0001143816400F03FF910BD10B5406A00F072
:1002000039F910BDF8B504460020009020688168D7
:100210008907890F012905D10168C9072CD1C16857
:10022000090429D48168154A1026114001250029A6
:1002300015D1816829438160124811490068FFF790
:100240004FFF00E0401E00900028FBD100F058FC5A
:1002500007460CE000F054FCC01B022807D9606C74
:1002600030436064A06C2843A0640120F8BD20687E
:100270000068C043C007EDD10020F8BD1700008022
:1002800040420F001400002030B502460848094DD6
:1002900007E0137843401C06030AE00D285A584033
:1002A000521C0B46491EC9B2002BF2D130BD0000D2
:1002B000FFFF00006426000810B5024800F0C2FAF3
:1002C00010BD00000C01002010B50446006805496F
:1002D00040181421FFF704FF800020640248E06307
:1002E00010BD0000F8FFFDBF0000024030B5056CF6
:1002F0000124AC40C56B6C60046863604368102BDC
:10030000036803D099600068C26030BD9A600068DD
:10031000C16030BD70470000014840687047000070
:10032000080000200A2804D2064940000A5A012A7F
:1003300001D000207047034A143A125A0A52012091
:100340007047000028040020F8B50025044640341A
:1003500000952278012A39D00122227003689E6814
:10036000760767D4384F4E68BE424DD09E6A0F78EC
:10037000BA4016439E620123826B1B079A421FD02C
:10038000012A1DD0022A1BD0032A19D0042A17D013
:10039000052A15D0062A13D0072A11D002688B68C7
:1003A00056697607760FB3420AD05369DB08DB0043
:1003B0005361006842690B7A5B075B0F1A43426125
:1003C0000A68102A04D0112A02D038E00220F8BDB1
:1003D0001E488368102A07D00122920513438360C8
:1003E0000868102803D02AE00122D205F6E7194850
:1003F00017490068FFF774FE0A21484300E0401ED9
:1004000000900028FBD11AE0986A0E78B240904321
:1004100098620968102901D0112910D10B4882680F
:10042000102904D0012189058A43826007E0012157
:10043000C905F9E7416C20221143416401250020E0
:1004400020702846F8BD0000011000000027014080
:1004500040420F00140000200448416B888A401C71
:10046000888203490120086070470000C001002015
:10047000000000207047704770B5044600680168AE
:10048000490702D54168490705D40168090730D5F5
:10049000416809072DD5616CC90604D4616C01223D
:1004A000520211436164C1680C250905890F0029B6
:1004B0001AD1216A002917D10168090714D581686A
:1004C0004A070121002A08DB4268AA434260606CA7
:1004D0000A0290430843606406E0606C20221043E7
:1004E0006064A06C0843A0642046FFF7B5FF206855
:1004F00005602068016809060DD5406800060AD528
:10050000606C0121090408436064204600F0D6F8BD
:1005100021688020086020680168C90613D54168F9
:10052000C90610D5616B1025012902D0C168C90721
:1005300007D0A16C02221143A16405602046FFF799
:100540009AFF2068056070BDF8B5002504460028B4
:1005500003D0606C002802D008E00120F8BD002024
:10056000A06440210855204600F0AAF8606C1022D3
:10057000104270D12068816849076CD4616C130106
:10058000994302231943616481688907890F01290E
:1005900005D10168C9070FD1C16809040CD4C1682D
:1005A0001826B143A6683143C160206801696668B6
:1005B00089008908314301612068C1683D4E31409E
:1005C000C160A069E1698003C9030843216A4E0341
:1005D0003043666B012E02D00126360300E0002670
:1005E0003043E66830432669022E08D000263043A7
:1005F000266B76003043666A012E02D00BE004269B
:10060000F5E7002928D0616C202631436164A16C94
:1006100001263143A164A16A0E46FF3EC23E02D0CC
:10062000E66A314308432168CE680643CE6001265E
:10063000A16B3607B14213D0012911D002290FD086
:1006400003290DD004290BD0052909D0062907D08C
:10065000072905D010E028E0012109040843DAE762
:1006600021684E69F608F6004E6121684E69278FB1
:100670007F077F0F3E434E612168C9680E4E3140AF
:10068000814207D10020A064606C80088000401C7B
:10069000606408E0606C984310436064A06C0121C2
:1006A0000843A06401252846F8BD606C10436064CF
:1006B000F8E700001902FEFFE7FF3F8370470000E4
:1006C000F0B587B0054614216846FFF726FD1F499F
:1006D0002868884238D11E4988694E1530438861A0
:1006E0008869304005904A69300202434A6149698D
:1006F000002701400591F02000900320019009207F
:1007000069460297C00600F04DF91248124C81C4A8
:1007100027608020A66060600001E06020202061EA
:10072000000260610C48083C00F0DAF8002801D0B3
:10073000FFF7F0FDEC63002211460C20656200F02B
:100740002DFA0C2000F020FA07B0F0BD0024014083
:1007500000100240080002400C010020F7B50446DA
:1007600000680025806840073DD426464036307832
:1007700001280AD001273770E069012807D02046F8
:10078000FFF740FD050002D02EE00220FEBD606CA8
:1007900016490840FF210131084360640020A0642D
:1007A0003070E16B12488862E16B1248C862E16BFD
:1007B0001148086321681C200860206841681022E5
:1007C000114341602068C1683943C1602168E06B12
:1007D0004031029B019A00F0AFF820688168042242
:1007E0001143816000E002252846FEBDFEF1FFFFB7
:1007F00075010008FB010008E101000870B5002444
:10080000014620314A78022A03D004218163012461
:1008100016E0026813680E25AB4313600268136884
:100820005B085B0013600122056C1346AB40C56B8F
:100830006B604A7000220A70416B002900D0884723
:10084000204670BDF0B4C16B0D6801680C680422CD
:10085000066C1346B3402B420DD063070BD50B68D3
:100860009B0602D40B6893430B60016C8A40C16BFA
:100870004A60C16A19E00227B74002462F400123AF
:100880002032002F15D0A70713D50C68A40604D476
:100890000C680A25AC430C605370036C022199402C
:1008A000C36B596000211170816A002916D0F0BC19
:1008B00008470827B7402F4210D024070ED50C68F0
:1008C0000E25AC430C60046C1946A140C46B6160FA
:1008D0008363537000211170016BE6E7F0BC704731
:1008E00070B5040024D00220214620310D46487006
:1008F000226811680F48A3680140606826691843A0
:10090000E3683343184363691843A3691843E369F1
:100910001843084310602046FFF7D6FC0020A06271
:10092000E06220636063A06301216970287070BD7C
:10093000012070BD0FC0FFFFF8B504468C46203083
:1009400001780025012909D0012606704178002789
:10095000012905D0077002252846F8BD0220F8BD00
:1009600002214170A76320680168490849000160BD
:1009700061462046FFF7BAFCE06A0028206801685B
:1009800002D00E22114306E00A22114301602068C2
:1009900001680422914301602068016831430160CD
:1009A000DAE70000F8B500238DE001249C40A4465E
:1009B00022407DD04C68022C01D0122C0CD1DC08D6
:1009C000A40027183C6A5D07ED0E0F26AE40B44325
:1009D0000E69AE4026433E6205685E000324B440C3
:1009E0000F79A543BF07BF0FB7402F4307604D687E
:1009F000012D05D0022D03D0112D01D0122D0ED1C5
:100A00008568CF68A543B7402F4387604768654630
:100A1000AF430D79ED06ED0F9D403D434560C56840
:100A2000A5438C68B4402C43C4604C68E40049D5AD
:100A3000284CA56901263543A561A4699D08344069
:100A40000094254CAD002F19BC689D072E0F0F2573
:100A5000B540AC430925ED06A84201D100250FE0C1
:100A60001E4DA84201D101250AE01D4DA84201D129
:100A7000022505E01B4DA84201D1032500E0052514
:100A8000B5402543BD60184C25684E689543F60374
:100A900000D51543256065684E689543B60300D5BB
:100AA00015436560A5684E689543F60202D500E0DF
:100AB00008E01543A560E5684E689543B60200D589
:100AC0001543E5605B1C0A681446DC4000D06CE707
:100AD000F8BD000000100240000001400004004882
:100AE00000080048000C00480004014042694A40E8
:100AF00042617047002A01D081617047816270476E
:100B0000014800687047000010000020024801689A
:100B1000491C0160704700001000002010B5064815
:100B20000168102211430160002000F007F800F076
:100B300017F8002010BD00000020024010B5044648
:100B400000F03AF97D21C900FFF7CAFA00F030FB46
:100B500000222146501E00F021F8002010BD0000A8
:100B600008B50848816901221143816181691140FA
:100B70000091C26901040A43C261C0690840009043
:100B800008BD000000100240C106C90E01208840C7
:100B9000014908607047000000E100E010B501F075
:100BA00035F810BDF8B505460068354CC00352D580
:100BB000E0690026C00007D4E16920040143E16137
:100BC000E1690140012600912E480168C90510D451
:100BD0000168821511430160FFF792FF074604E0A8
:100BE000FFF78EFFC01B642824D826480068C00584
:100BF000F6D5206A03273F02384020D06968394083
:100C000081421CD0206A226AB843012109040A43A8
:100C10002262226A8A4322622062C0070FD0FFF755
:100C20006FFF009008E0FFF76BFF0099411A16482C
:100C3000814201D90320F8BD206A8007F3D5206ADC
:100C40006968B84308432062002E04D0E16901209E
:100C500000078143E1612878C00705D0206BA968AF
:100C600080088000084320632878800605D5206B23
:100C700010218843E968084320630020F8BD000084
:100C8000001002400070004088130000F8B50546CF
:100C900044480E460068C007C00FB0420AD241481F
:100CA000016849084900314301600068C007C00F6E
:100CB000B0425CD128783C4C800705D56068F021B3
:100CC0008843A968084360602878C0073FD06868F7
:100CD000012813D02168022813D08907002946DA99
:100CE00061688908890001436160FFF709FF69684D
:100CF000074601290DD0022917D024E02168890375
:100D0000ECE78901EAE7FFF7FBFEC11B27488142B8
:100D100017D860680007800F0128F4D117E0FFF7AB
:100D2000EFFEC11B214881420BD860680007800F8D
:100D30000228F4D10BE0FFF7E3FEC11B1B48814200
:100D400001D90320F8BD60680007800FF3D1154872
:100D50000168C907C90FB1420BD9016849084900A8
:100D6000314301600068C007C00FB04201D00120CC
:100D7000F8BD2878400706D5606807210902884336
:100D8000E9680843606000F02DF86168084A0906C8
:100D9000090F515CC840074908600020FFF7CEFEEC
:100DA0000020F8BD0020024000100240881300001F
:100DB0006428000814000020014800687047000003
:100DC000140000200448054900684968044A4905A0
:100DD000490F515CC84070471400002000100240C9
:100DE0007428000810B512A30FCB88B06C460FC44E
:100DF00013A30FCB0FC416494A680C2013460340B7
:100E00001448042B0FD0082B0DD193021B0F6C46F6
:100E1000E45CC96A04AB0907090F595CD20304D525
:100E2000FFF75EF9604308B010BD0B486043FAE776
:100E300002030405060708090A0B0C0D0E0F10101B
:100E40000102030405060708090A0B0C0D0E0F101A
:100E50000010024000127A0000093D00FEB5044671
:100E60000078D04DC00747D068680007800F012880
:100E700007D068680007800F022809D16868C0039E
:100E800006D52868800337D5606800287ED033E017
:100E9000012062680004012A11D08100002A01D0DB
:100EA000052A10D02A6882432A602868884328606F
:100EB0006068002814D0FFF723FE06460CE029687E
:100EC00001432960F4E72A680A432A60F7E7FFF73D
:100ED00017FE801B64286FD828688003F7D50BE0C5
:100EE000FFF70EFE064604E0FFF70AFE801B6428AB
:100EF000F1D828688003F7D42078012680070028DD
:100F00003BDA68680007800F07D068680007800F29
:100F1000022809D16868C00306D42868800715D55F
:100F2000E068012832D111E0E0680028286815D077
:100F300030432860FFF7E4FD074604E0FFF7E0FDDB
:100F4000C01B0228C7D828688007F7D52868F82171
:100F500088432169C900084328600EE0400840002A
:100F60002860FFF7CDFD074604E0FFF7C9FDC01B71
:100F70000228B0D828688007F7D42078000724D545
:100F8000E0690028686A10D0304300E008E1686238
:100F9000FFF7B6FD074604E0FFF7B2FDC01B0228CD
:100FA00099D8686A8007F7D50FE04008400068626A
:100FB000FFF7A6FD074605E09DE0FFF7A1FDC01B7A
:100FC000022888D8686A8007F7D420780427400769
:100FD000002860DA00200190E869C00008D4E969BF
:100FE000B8060143E961E9690140012000910190DF
:100FF0006D480168C90511D401688215114301606B
:10100000FFF77EFD009005E0FFF77AFD0099401A9A
:10101000642870D864480068C005F5D5A068012828
:101020000AD0002801D0052810D0286A40084000C6
:101030002862286AB84301E0286A30432862A06821
:10104000002812D0FFF75CFD00900AE0286A3843C0
:101050002862F1E7FFF754FD0099411A5348814295
:1010600049D8286A8007F5D50DE0FFF749FD0090C3
:1010700006E0FFF745FD0099411A4C4881423AD8F5
:10108000286A8007F5D40198002804D0E969012076
:1010900000078143E9612078C00635D560690128E1
:1010A0000CD0401D686B23D038436863686B4008E0
:1010B00040006863FFF724FD064622E0686B384372
:1010C0006863686B30436863FFF71AFD064604E007
:1010D000FFF716FD801B02285BD8686B8007F7D5E9
:1010E000686BF8218843A169C900084368630BE075
:1010F000B8436863F4E74CE0FFF702FD801B022869
:1011000047D8686B8007F7D4206A002846D0696802
:101110000907890F022943D00126360602282868CC
:1011200005D0B0432860FFF7EBFC044633E0B04342
:101130002860FFF7E5FC074604E0FFF7E1FCC01B71
:10114000022826D828688001F7D4E86AE16A0009F5
:1011500000010843E862616AA06A084369683D22A9
:101160001204914308436860286830432860FFF701
:10117000C7FC044604E0FFF7C3FC001B022808D8A4
:1011800028688001F7D509E0FFF7BAFC001B0228A8
:1011900001D90320FEBD28688001F5D40020FEBDE2
:1011A0000120FEBD001002400070004088130000C6
:1011B000094910B5401E884201D9012010BD074CD5
:1011C00060610321081F00F021FD0020A0610720BD
:1011D0002061002010BD0000FFFFFF0000E000E0E4
:1011E00070470000F8B503680446D96918680D0710
:1011F0002D0F07D18A0605D5820603D5204600F0BB
:1012000055FEF8BD9A68002D64D0D507ED0FFF2676
:10121000213606402E435DD0CE0706D0C60504D544
:1012200001261E62E36E3343E3668F070223042622
:10123000002F06DAD70704D027683B62E76E3743F2
:10124000E7664F0706D5D20704D022681662E26E21
:101250001A43E2660A0709D5202202402A4305D034
:10126000236808221A62E36E1343E366E26E002AE3
:10127000C7D0890604D5800602D5204600F016FEA8
:10128000E06E000703D42068806840061CD5204625
:1012900000F0F0FD20688168490611D58168402280
:1012A00091438160606E00280AD012494163606EEC
:1012B000FFF7A4FA0028A4D0606E416B8847F8BD00
:1012C0002046FFF78DFFF8BD2046FFF789FF00207D
:1012D000E066F8BD0A0605D5020603D5204600F0F3
:1012E000ADFEF8BD4906FCD54006FAD5204600F013
:1012F000D0FDF8BD611E000870B5040005D025467C
:101300006035687A002802D006E0012070BD002018
:101310002872204600F026F82420687220680168B0
:10132000490849000160204600F0FEFD0128EDD08B
:10133000606A002802D0204600F024FD2068416841
:101340000122D202914341602068816808229143C2
:10135000816020680168012211430160204600F08D
:1013600076FD70BD10B586B0044614216846FEF7C0
:10137000D4FE16492068884226D115488269012189
:1013800089030A43826182690A4005924269C90061
:101390000A4342614069084005900C2000900220F9
:1013A0000190002002900320039001200490092066
:1013B0006946C006FFF7F6FA002211461B20FFF728
:1013C000EDFB1B20FFF7E0FB06B010BD003801402D
:1013D0000010024070B5034660339C7A202C39D14E
:1013E00000290BD0002A09D0012584682D03AC42C6
:1013F00006D10669002E03D1CE0701D0012070BDB1
:101400001E7A012E26D001261E724165014640310A
:101410000A834A83FF22AC4204D10469002C07D11D
:101420000D4A05E0002C04D10469002C00D07F2275
:101430008A830021C16622229A72197201688A6821
:1014400032438A6000680168FF2221321143016043
:10145000002070BD022070BDFF010000034910B5DF
:10146000884202D1024800F02DFB10BD500100203F
:10147000C0010020FFB5064604466036707A83B08E
:101480000D46202858D1002D0CD00598002809D0F1
:101490000120A1680003814207D12069002804D1FE
:1014A000E80702D0012007B0F0BD307A012843D010
:1014B000012030720020E06621207072FFF720FBCF
:1014C000019027464037059838820598788218E0C1
:1014D000788A401E7882069800900022802120465B
:1014E000019B00F0DEFD002818D10120A168000357
:1014F000814202D12069002812D02168287808850D
:101500006D1C788A0028E3D10698009000224021C3
:101510002046019B00F0C5FD002808D00320C2E74B
:1015200028882168C005C00D0885AD1CE9E720208A
:10153000707200203072B6E70220B4E77047FEE711
:101540003EB500212548009101910291224A416057
:10155000026003468160012204240C3316C38161BA
:10156000C1610162FF234162C233C162836242638F
:101570000163FEF7E9FF002801D0FEF7CBFE012052
:101580000003009401900724694614480294FEF772
:10159000DBFE002801D0FEF7BDFE05200090694665
:1015A0000E48FEF7D1FE002801D0FEF7B3FE06205C
:1015B000009069460948FEF7C7FE002801D0FEF7F3
:1015C000A9FE694605480094FEF7BEFE002801D03A
:1015D000FEF7A0FE3EBD000000240140C000002038
:1015E00008B5084841690122114341614069104032
:1015F0000022009011460920FFF7D0FA0920FFF7DA
:10160000C3FA08BD00100240F0B587B01421684647
:10161000FEF783FD18484269012189050A434261AA
:1016200042690A400592426949110A434261406990
:10163000124E08400590002201213046FFF75AFA69
:101640000927FF06002202213846FFF753FA012539
:101650000024009502946946304601950394FFF7F3
:10166000A1F902200090029469460195039438463E
:10167000FFF798F907B0F0BD0010024000140048D1
:1016800010B50C480A490160E1214902416000217E
:101690008160C16001618161C1610C2201624261AE
:1016A0004162FFF729FE002801D0FEF733FE10BD8E
:1016B0000038014050010020F3B5044681B00120FC
:1016C000A0800A26E660E120002526614002A56090
:1016D0002060142000F090FF2C4F606100282DD076
:1016E000E1684900FEF719FDC820E062A5622063A9
:1016F000400000F081FF6063002821D0E16A4900CA
:10170000FEF70BFDE66126621420A56100F074FF70
:101710006062002816D0E1694900FEF7FEFC4B2309
:10172000226809215B028901D71A052061189A42B3
:1017300015D009DC1648121A0ED10FE0E760D3E786
:10174000E762DFE7E761EAE74B221202BA1A06D046
:10175000E1231B029A4202D00E7101E00F200871B2
:101760000D70CD70CD8001200872E11D2046FF3143
:10177000FF34FA3139343830CC6388630298086515
:1017800001220449FFF726FEFEBD00000F270000DE
:101790008025000004000020F0B50546FF30FF3032
:1017A0000230846B6078002837D0C11F082934D3F9
:1017B000102832D8092080012E1870780146083987
:1017C000F3297BD2801EC1B22046FEF75DFD0146A3
:1017D0007278A01E121850781278000210438142CD
:1017E0006CD1E078A1780002084342BA607921798F
:1017F000000208436178012340BA01290FD0022971
:101800000DD005294BD00F2963D0032972D00429AC
:1018100071D0062970D010296FD00120F0BD0F21A2
:10182000890188424AD8A968914267DC2F6911185A
:10183000B942FADCA11C47070BD0C7087F1C0F7008
:10184000491C8C462989511A89B28E4600221146BC
:1018500020E0C708F3E773466F695B00FF5A6346F1
:10186000002F04D01B78012797401F4303E01F7807
:10187000012393409F43521C6346D2B21F70082A33
:1018800002D300225B1C9C4673465B1C9BB2491C26
:101890009E4689B28142DED3A078401D16E0A96839
:1018A00091422BDC2C69944228DDFF242402A042C3
:1018B00005D1511A68694900435206E054E00028F6
:1018C00052D1511A6B69490058520820B07000205B
:1018D000F0BDA9688C46914277DC2F691118B94296
:1018E00073DC67466D69D21B52000021AD180A46B1
:1018F000E41D16E018E035E054E05EE065E027788E
:1019000001238B401F4201D0012300E000232B80E4
:10191000491CC9B2AD1C082901D30021641C521C0A
:1019200092B28242EBD3D0E77D281DD8AB6A9342B6
:101930004BDC2F6B1118B94247DCD21A6D6B430098
:101940005200A370AA180023E11C08E015885B1C54
:101950002D120D7015784D70891C9BB2921C83421C
:10196000F4D399E77D2801D90320F0BDAB699342F8
:101970002BDC2F6A1118B94227DCD21A6D6A43009A
:101980005200A370AA180023E11C08E015885B1C14
:101990002D120D7015784D70891C9BB2921C8342DC
:1019A000F4D379E7A96A91420FDC2C6B94420CDDE9
:1019B000511A6C6B490060521DE0A96A8C46914235
:1019C00003DC2F6B1118B94201DD0220F0BD614626
:1019D0006D6B511A49006A180021E41D09E0257851
:1019E000491C2D021580677889B22F431780921CFD
:1019F000A41C8142F3D3337267E7F8B50646092089
:101A000080013518E8882979884251D9F41DFF34BE
:101A1000FA34A16BE06BE163A0632978697000225E
:101A20002A700122EA70082940D304210078715EEF
:101A300088423BD1FEF770FC07463046FFF7ACFE0C
:101A40006871002814D0A06B802241781143417046
:101A5000A16B687988700321A06BFEF715FCA16B60
:101A6000C870000AA16B05220871A16B206D13E0FC
:101A7000A878801EC1B2A06BFEF706FCAA78A16B05
:101A8000891820398877010AAA78A06B8018203835
:101A9000C177AA78A16B206D00F03CFBE06CF16A85
:101AA000381A4900726B891E5052E7640020E880A2
:101AB000F8BD00000249C888401CC880704700007B
:101AC0000004002070B5092189014118C21DCC789D
:101AD000FF320023FA32002C0ED00425455F0A485D
:101AE0000478A54203D00878002800D1CB7008788C
:101AF000D66B451C0D703454CB80106D0122024909
:101B0000FFF768FC70BD00000400002010B59AB01B
:101B100017491848FFF7D0FD164C0422A25E16A103
:101B20006846236800F016FB6946114800F0FEFA8B
:101B300019A16846E368A26800F00CFB69460C48EE
:101B400000F0F4FA1CA16846E36AA26A00F002FB06
:101B50006946074800F0EAFA1FA16846E369A269EE
:101B600000F0F8FA6946024800F0E0FA1AB010BD39
:101B700050010020C00100200D0A53746174696F88
:101B80006E204E6F3A2025642C204261756472618C
:101B900074653A20256400000D0A436F696C205378
:101BA00074617274206164723A202534642C204C74
:101BB000656E3A20253464000D0A52656720205373
:101BC00074617274206164723A202534642C204C54
:101BD000656E3A20253464000D0A526F6D20205343
:101BE00074617274206164723A202534642C204C34
:101BF000656E3A202534640010B50248FFF7FDFEFB
:101C000010BD0000C0010020704700008307FF22C4
:101C1000DB0E9A408907090E994000280BDA00076D
:101C2000000F0838830808489B001818C3699343BD
:101C30000B43C3617047830804489B001B18186856
:101C4000904308431860704700ED00E000E400E0B6
:101C5000704770470A2805D24000034A491C1152B8
:101C600014321152704700001404002010B5FEF722
:101C70004DFFFFF71FFF0B484168491C4160016899
:101C8000002902D10168491E0160074A0020410075
:101C9000535A012B02D9535A5B1E5352401C0A2837
:101CA000F5DB10BD080000202804002030B5074BEC
:101CB00000201C4614341D46014628354200995226
:101CC000A1522954401C0A28F8DB30BD140400201E
:101CD00030B595B030216846FEF71FFA0024012583
:101CE0000F941A20059500900D940E9410200C94DA
:101CF00010941294139411940395049006900795F0
:101D000008946846FFF7AAF807200C900D940E94EB
:101D100000210F940CA8FEF7B9FF10A8109512949B
:101D2000FEF740FF15B030BD134801680122114392
:101D300001604168114A114041600168104A114038
:101D400001600168012292049143016041683F22D1
:101D5000120491434160C16A09090901C162016B22
:101D6000FF22143291430163416B490849004163EA
:101D70000021816070470000001002400CB8FF088D
:101D8000FFFFF6FE10B5818CC90707D001684A68CD
:101D900001235B049A43836A1A434A60818C890752
:101DA00007D501684A6801231B049A43C36A1A4392
:101DB0004A60818C490707D501684A6801239B0462
:101DC0009A43036B1A434A60818C090707D501685F
:101DD0004A680123DB039A43436B1A434A60818CB0
:101DE000C90607D50268916801231B039943836BD9
:101DF00019439160818C890607D501688A6801239F
:101E00005B039A43C36B1A438A60818C490612D5DF
:101E100003685A6801210905046C8A4322435A6009
:101E2000026C8A4207D10268516803235B0599431B
:101E3000436C19435160818C090607D501684A68D3
:101E40000123DB04806C9A4302434A6010BD0021E9
:101E5000C166202260304272827201720846704769
:101E600010B5406A0022014640314A834A82FFF79A
:101E7000B7F910BD01680A68FF2321339A430A604D
:101E800001688A68520852008A602021603081729D
:101E9000704710B501680A6840239A430A602022FF
:101EA00069210A54FFF74AFB002010BD70B50246B5
:101EB000403203466033948B9D7A0168222D05D011
:101EC0008869082210438861022070BD898C012630
:101ED00085683603B54202D10569002D0BD021403B
:101EE000446D651C45652170518B491E0904090C20
:101EF000518307D015E0456D21402980416D891C33
:101F00004165F1E701680A68FF242134A2430A60B1
:101F100001688A68520852008A6020219972FFF78E
:101F20009DFA002070BD0000F8B504462369A26840
:101F3000E6691A43636910213343002026681A4377
:101F400033680546394F3B401343336023685A6872
:101F500003263603B243E66832435A60236AA26915
:101F600026681A43B3680B273F02BB431343B36091
:101F70002F4A126B9207920F06D0012A08D0022A2C
:101F800008D0032A07D101E0002104E0022102E089
:101F9000042100E008210122E369D203934224D105
:101FA00000290CD002290DD0042913D0082917D0FC
:101FB0000125010909010007400F084332E0FEF73F
:101FC00001FF09E061681B4A48088018FEF788F89D
:101FD00080B2EEE7FEF706FF616840004A08F4E7CA
:101FE0006168012248081204EFE7002908D002299D
:101FF00009D004290BD008290ED001252846F8BDA8
:10200000FEF7E0FE05E061680B4A480806E0FEF7CF
:10201000E9FE61684A0801E0616848088018FEF737
:102020005FF880B22168C860E8E70000F369FFFF4D
:10203000001002400024F40000127A006921095CBB
:10204000212901D00220704702464032518A0029DE
:1020500012D0012381681B03994202D10169002932
:1020600015D0C16C4B1CC364006809780185508A87
:10207000401E50820020704701680A6880239A43FE
:102080000A6000680168402211430160F2E7C16CF8
:1020900003680988C905C90D1985C16C891CC1640B
:1020A000E5E7FFB581B017460E4604460A9D1DE0E0
:1020B000681C1BD0002D05D0FEF722FD0499401AA4
:1020C000A84213D920680168FF22A1329143016020
:1020D000206881684908490081602020603460726E
:1020E000A07200202072032005B0F0BD2068C169F5
:1020F0003046884304D00020B842D9D00020F3E70E
:102100000120F9E710B50248FFF76CF810BD000098
:102110005001002010B592B2034BFFF7ABF9002835
:1021200001D0FEF7F7F810BDFFFF000070B50546BF
:102130000C460846FDF7FCFF82B2054B21462846B7
:10214000FFF798F9002801D0FEF7E4F870BD000011
:10215000FFFF00000FB410B504A9074B02AA0398B3
:1021600000F01CF8044602A9002000F0BFF9204648
:1021700010BC08BC04B01847ED24000802E008C8F1
:10218000121F08C1002AFAD170477047002001E0F1
:1021900001C1121F002AFBD170470000FFB58FB0AC
:1021A0000546002606E025280AD0129A1199904784
:1021B0006D1C761C28780028F5D1304613B0F0BD90
:1021C000002402940121B54A009400E004436D1CF0
:1021D0002B780846203B98401042F7D128782A28CF
:1021E0000ED00222287801463039092916D80299E2
:1021F0000A2359433039401814436D1C0290F1E70B
:10220000109802C802911090002904DA01204003BE
:10221000044348420290022004436D1C28782E2873
:1022200017D10420044368786D1C2A280CD110981B
:102230006D1C02C8009110900BE000990A225143D6
:10224000303940186D1C0090287801463039092932
:10225000F3D928786C2810D006DC4C281AD06828CE
:102260000ED06A2817D104E0742813D07A2812D12E
:1022700010E00120400504430CE00121090501E0C4
:10228000032109050C436978814203D1012000052F
:1022900024186D1C6D1C2878692874D006DC002871
:1022A0008BD0632827D0642806D16CE06E2808D034
:1022B00073282CD0752878D0129A11999047761CE3
:1022C0005FE06002400F022809D003280DD00428E7
:1022D000109801680DD00E60001D109051E010980C
:1022E000F21701680E604A60F6E7109801680E80E8
:1022F000F2E70E70F0E710986A4601781173001D3E
:1023000010900020507303A80190012005E0109860
:1023100002C8019110900020C04361070CD500272E
:1023200000E07F1C00998F420FDA8742F9DB0199A8
:10233000C95D0029F5D108E0002700E07F1C874235
:10234000FCDB0199C95D0029F8D102982146C01B28
:102350000290129B119A00F0B3F88019C61907E099
:10236000019801990078491C0191129A119990479E
:102370007F1EF5D22146129B119A029800F090F828
:1023800086196D1C16E70A200190109901C9109159
:102390006102490F032900D100B2042900D140B2E3
:1023A000002803DA40422D2103E00DE0210504D589
:1023B0002B216A461173012103E0E10711D020218E
:1023C000F7E70CAF0C9114E00A200190109901C9B5
:1023D00010916102490F032900D180B2042900D174
:1023E000C0B20021EDE70199FDF77AFE30317F1E82
:1023F00039700028F7D104A8C01B20300190600775
:1024000004D5012000048443009801E001200090DD
:102410000199884201DD401A00E000204118009037
:102420000C9809180298401A0290E00306D421463D
:10243000129B119A029800F043F8861900200D9023
:1024400008E003A9085C129A119990470D98401C66
:10245000761C0D900C998842F3DBE0030CD52146E5
:10246000129B119A029800F02BF8861904E0129A38
:10247000302011999047761C0099481E0090002941
:10248000F5DC05E03878129A7F1C11999047761C8C
:102490000199481E01900029F4DC6BE7092801002E
:1024A000F8B5044600251E461746880404D405E006
:1024B00039462020B0476D1C641EF9D52846F8BD6A
:1024C000FFB50446002581B01E46C80301D530275C
:1024D00000E02027880404D505E038460399B0477A
:1024E0006D1C641EF9D5284605B0F0BD0A68531C62
:1024F0000B601070704700001FB5FEF70FFBFFF771
:10250000E7FBFFF781F8FFF76BF8FFF719F8FFF724
:10251000B7F8FFF7CBFBFFF7F9FAC8210020FFF768
:1025200099FB7D21C9000120FFF794FB6421022063
:10253000FFF790FB2B4C002528222B492B482560C8
:10254000FEF70CF9FFF758FB2068002823D0002184
:1025500068468A00491C85500429FAD3224B002181
:102560008A07120F8F008658DF59491CF6198650CA
:102570002829F5D31E4F0026B100684640580A218D
:10258000FDF7AEFD0421891B49007A6B761C505281
:10259000042EF1D32560164E706B0088002801D000
:1025A000002000E00120FDF7BDFE002803D001213E
:1025B0001048FEF79BFA0220FDF7B4FE0028C1D0B8
:1025C000282209490948FEF7C9F8706B00880028DD
:1025D00001D0012200E0002209200221C006FEF7FE
:1025E00089FAAFE70000002020000020C000002092
:1025F000C001002000140048F0B50B30C108C9002C
:10260000144F0026144A0FE003688B420BD38B4211
:1026100005D95C1A4318456830C3083B00E043689D
:10262000136002C004E0021D10680028ECD130469F
:10263000002803D13868002801D00020F0BD064AE8
:1026400006481060064A121AD208D20044C001207F
:102650003860D7E71C000020180000204C04002040
:10266000480900200000C1C081C1400101C3C0036E
:10267000800241C201C6C006800741C70005C1C52E
:1026800081C4400401CCC00C800D41CD000FC1CFEE
:1026900081CE400E000AC1CA81CB400B01C9C009DE
:1026A000800841C801D8C018801941D9001BC1DB7E
:1026B00081DA401A001EC1DE81DF401F01DDC01D2E
:1026C000801C41DC0014C1D481D5401501D7C0174E
:1026D000801641D601D2C012801341D30011C1D15E
:1026E00081D0401001F0C030803141F10033C1F39E
:1026F00081F240320036C1F681F7403701F5C0352E
:10270000803441F4003CC1FC81FD403D01FFC03FED
:10271000803E41FE01FAC03A803B41FB0039C1F9DD
:1027200081F840380028C1E881E9402901EBC02B3D
:10273000802A41EA01EEC02E802F41EF002DC1ED2D
:1027400081EC402C01E4C024802541E50027C1E74D
:1027500081E640260022C1E281E3402301E1C0215D
:10276000802041E001A0C060806141A10063C1A35D
:1027700081A240620066C1A681A7406701A5C0652D
:10278000806441A4006CC1AC81AD406D01AFC06FED
:10279000806E41AE01AAC06A806B41AB0069C1A9DD
:1027A00081A840680078C1B881B9407901BBC07B7D
:1027B000807A41BA01BEC07E807F41BF007DC1BD2D
:1027C00081BC407C01B4C074807541B50077C1B74D
:1027D00081B640760072C1B281B3407301B1C0715D
:1027E000807041B00050C190819140510193C0531D
:1027F000805241920196C056805741970055C1952D
:1028000081944054019CC05C805D419D005FC19FEC
:10281000819E405E005AC19A819B405B0199C059DC
:10282000805841980188C04880494189004BC18B3C
:10283000818A404A004EC18E818F404F018DC04D2C
:10284000804C418C0044C184818540450187C0474C
:10285000804641860182C042804341830041C1815C
:1028600081804040000000000000000001020304DD
:102870000607080900000000010203049C28000864
:1028800000000020200000007C210008BC28000877
:1028900020000020280D00008C210008000000000E
:1028A0000000000000000000000000000000000028
:0C28B00000127A00000000000000000090
:04000005080000B13E
:00000001FF
